:020000040800F2
:1000000018040020AD0200085D150008E514000882
:10001000591500081903000819170008000000000E
:100020000000000000000000000000006315000850
:100030001D03000800000000611500086515000898
:10004000C7020008C7020008C7020008C70200086C
:10005000C7020008C7020008C7020008C70200085C
:10006000C7020008C7020008C7020008C70200084C
:10007000C7020008C7020008C7020008C70200083C
:10008000C7020008C7020008C7020008C70200082C
:10009000C7020008C7020008C7020008C70200081C
:1000A000C7020008C7020008C7020008C70200080C
:1000B000C7020008C7020008C7020008C7020008FC
:1000C000C7020008C7020008C7020008C7020008EC
:1000D000C7020008C7020008C7020008C7020008DC
:1000E000C7020008C702000800000000C70200089D
:1000F000C7020008C7020008C7020008C7020008BC
:10010000C7020008C7020008C7020008C7020008AB
:10011000C7020008C7020008C7020008C70200089B
:10012000C7020008C7020008C7020008C70200088B
:10013000C7020008C7020008C7020008C70200087B
:1001400000000000000000000000000000000000AF
:10015000C7020008C7020008C7020008C70200085B
:10016000C7020008C7020008C7020008C70200084B
:10017000C7020008C7020008C7020008C70200083B
:10018000C7020008C7020008C7020008C70200082B
:10019000C7020008C7020008C7020008C70200081B
:1001A000C7020008C7020008C7020008C70200080B
:1001B000C7020008C7020008C7020008C7020008FB
:1001C000C7020008C7020008C7020008C7020008EB
:1001D000C7020008C7020008C7020008C7020008DB
:1001E000C7020008C7020008C7020008C7020008CB
:1001F000C7020008C7020008C7020008C7020008BB
:10020000C7020008C7020008C7020008C7020008AA
:10021000C7020008C7020008C7020008C70200089A
:10022000C7020008C7020008C7020008000000005B
:10023000C7020008C702000800000000C70200084B
:10024000C7020008C7020008C7020008C70200086A
:10025000C7020008C7020008C7020008C70200085A
:10026000C7020008C7020008C7020008C70200084A
:10027000C7020008C7020008C7020008000000000B
:10028000C7020008C7020008C702000800000000FB
:1002900000000000C7020008DFF80CD000F02AF8C8
:1002A00000480047731700081804002006488047DC
:1002B00006480047FEE7FEE7FEE7FEE7FEE7FEE74B
:1002C000FEE7FEE7FEE7FEE71D16000899020008BC
:1002D000D2B201E000F8012B491EFBD27047002288
:1002E000F6E710B513460A4604461946FFF7F0FF35
:1002F000204610BD064C074D06E0E06840F00103C3
:1003000094E8070098471034AC42F6D3FFF7C8FFD3
:10031000B4170008D417000800BFFEE7704772B694
:1003200000BFFEE770B5044600F01AF90646254600
:10033000681C10B104480078054400BF00F010F9B3
:10034000801BA842FAD370BD08000020F8B5024611
:100350000B4600216F4DD7E001278F401E6806EA4B
:100360000704002C72D01E7906F00306012E04D07B
:100370001E7906F00306022E13D190684F00032663
:10038000BE40B0434F00DE68BE40304390605068CE
:1003900001268E40B0431E79C6F300168E403043CE
:1003A00050601E7906F00306032E09D0D0684F0076
:1003B0000326BE40B0434F009E68BE403043D0602D
:1003C0001E7906F00306022E13D1CF0802F1200693
:1003D00056F827004E07F70E0F26BE40B0434F07D2
:1003E000FF0E1E69BE403043CF0802F1200646F8DA
:1003F000270010684F000326BE40B0431E7906F068
:1004000003064F00BE40304310605E6806F440367D
:10041000002E78D000BF404E366846F002063E4FB0
:100420003E603E46366806F00206009600BF00BFFA
:100430003A4E8F0856F827008E07370F0F26BE401A
:10044000B043374EB24202D100262EE05BE0354E7B
:10045000B24201D1012628E0334EB24201D1022638
:1004600023E0324EB24201D103261EE0304EB242AA
:1004700001D1042619E02F4EB24201D1052614E025
:100480002D4EB24201D106260FE02C4EB24201D1D0
:1004900007260AE02A4EB24201D1082605E0294E7D
:1004A000B24201D1092600E00A268F073F0FBE4065
:1004B00030431A4E8F0846F827004FF0B046306898
:1004C000A0435E6806F4801606B120434FF0B046A4
:1004D00030607068A0435E6806F4001606B12043E1
:1004E0004FF0B04670606868A0435E6806F400365E
:1004F00006B1204368602868A0435E6806F4803631
:1005000006B120432860491C1E68CE40002E7FF4AF
:1005100023AFF8BD80000058F44402580804005886
:10052000000002580004025800080258000C02584B
:10053000001002580014025800180258001C0258FB
:1005400000200258002402580AB1816101E00B0426
:100550008361704701480068000C70470010005C20
:100560000148006870470000000000200348006850
:1005700003490978084401490860704700000020D9
:100580000800002010B5032000F0A8F800F07AFA67
:1005900010490968C1F303210F4A515C01F01F01A2
:1005A00020FA01F40B48006800F00F001146085CC7
:1005B00000F01F0024FA00F00849086008480460B1
:1005C0000F2000F00FF808B1012010BD00F036F840
:1005D0000020FAE718440258A41700081000002071
:1005E0000C00002070B504461148007808B90120BD
:1005F00070BD0F4800784FF47A71B1FBF0F00D49EF
:100600000968B1FBF0F5284600F052FF08B101205F
:10061000EEE7102C07D200222146501E00F020F8F1
:100620000548046001E00120E2E70020E0E7000067
:10063000080000200C0000200400002008B500BFC6
:100640000648006840F00200044908600846006857
:1006500000F00200009000BF00BF08BDF444025843
:100660002DE9F05F80460D46164601F057F8074623
:1006700039462A46334601F00700C0F1070ABAF1AD
:10068000040F02D94FF0040A01E0C0F1070AD14675
:1006900000F1040ABAF1070F02D24FF0000A01E09C
:1006A000A0F1030AD4464FF0010A0AFA09FAAAF1A6
:1006B000010A0AEA020A0AFA0CFA4FF0010B0BFAD5
:1006C0000CFBABF1010B0BEA030B4AEA0B042146CE
:1006D000404601F02BF8BDE8F09F000000BF00F09D
:1006E0000702064B19684FF6FF031940044B0B43F2
:1006F00043EA0221014B196000BF70470CED00E096
:100700000000FA0570B5044615480068C0F3800083
:1007100048B91348006800F00700A04201D001204A
:1007200070BD0020FCE70E48006820F00700204361
:100730000B490860FFF714FF054607E0FFF710FFBD
:10074000401BB0F57A7F01D90120E9E70448083859
:100750000068C0F340300028F0D00020E0E700003F
:100760000C4802582DE9F04104460D4614B9012009
:10077000BDE8F081BD48006800F00F00A8420ED22D
:10078000BA48006820F00F002843B84908600846BE
:10079000006800F00F00A84201D00120E8E72078AF
:1007A00000F0040004280ED1B1492069096801F065
:1007B0007001884207D9AE48006820F070002169B6
:1007C0000843AB490860207800F00800082811D1E0
:1007D000A749091D6069096801F07001884209D9BB
:1007E000A348001D006820F0700061690843A0491B
:1007F000091D0860207800F01000102811D19C49D4
:10080000091DA069096801F4E061884209D9984886
:10081000001D006820F4E060A16908439449091DA7
:100820000860207800F02000202811D1904908317C
:10083000E069096801F07001884209D98C480830E4
:10084000006820F07000E1690843894908310860B8
:10085000207800F0020002280ED18549E06809687E
:1008600001F00F01884207D98148006820F00F008D
:10087000E16808437E490860207800F00100002804
:1008800050D07B48006820F47060A1680843784924
:1008900008606068022807D1754818380068C0F3FE
:1008A0004040F8B9012063E76068032807D1704829
:1008B00018380068C0F34060A0B9012058E76068AC
:1008C000012807D16A4818380068C0F3002048B9E9
:1008D00001204DE7664818380068C0F3800008B969
:1008E000012045E762480838006820F00700616889
:1008F00008435F4908390860FFF732FE064608E002
:10090000FFF72EFE801B41F28831884201D9032077
:100910002EE757480838006800F038006168B0EBEF
:10092000C10FEDD1207800F0020002280ED150490D
:10093000E068096801F00F01884207D24C4800685E
:1009400020F00F00E1680843494908604748006803
:1009500000F00F00A8420ED94448006820F00F00B4
:100960002843424908600846006800F00F00A8428A
:1009700001D00120FCE6207800F0040004280ED10C
:100980003B492069096801F07001884207D2384864
:10099000006820F07000216908433549086020781C
:1009A00000F00800082811D13149091D6069096863
:1009B00001F07001884209D22D48001D006820F026
:1009C0007000616908432A49091D0860207800F019
:1009D0001000102811D12649091DA069096801F4E9
:1009E000E061884209D22248001D006820F4E060DE
:1009F000A16908431E49091D0860207800F0200005
:100A0000202811D11A490831E069096801F0700104
:100A1000884209D216480830006820F07000E16969
:100A2000084313490831086000F02CF810490968A0
:100A3000C1F303210F4A515C01F01F0120FA01F7B5
:100A40000B48006800F00F001146085C00F01F0022
:100A500027FA00F00849086008480760084800685D
:100A6000FFF7C0FD8046404682E6000000200052AD
:100A700018440258A4170008100000200C000020A1
:100A800004000020F0B5824E366806F0380636B114
:100A9000082E15D0102E15D0182E7DD114E07C4EC6
:100AA000103E3668C6F3401646B1794E103E3668A1
:100AB000C6F3C107774E26FA07F000E07548E5E077
:100AC0007548E3E07548E1E0714E1836366806F087
:100AD00003046F4E18363668C6F305116C4E1C368B
:100AE000366806F001056A4E24363668C6F3CC0631
:100AF00016FB05F601EE106AB8EE410A002971D026
:100B000024B1012C50D0022C6DD16DE0604E103E0E
:100B10003668C6F340163EB35D4E103E3668C6F3E7
:100B2000C1075C4E26FA07F301EE103AF8EE411ABF
:100B300001EE101AB8EE411A81EE812A9FED581A83
:100B4000C0EE011A524E20363668C6F3080601EE92
:100B5000106AB8EE411A31EE811AF7EE001A31EE42
:100B6000211A62EE010A1EE001EE101AB8EE411AD7
:100B7000DFED4C1A81EE812A9FED491AC0EE011A71
:100B8000434E20363668C6F3080601EE106AB8EE0A
:100B9000411A31EE811A00E076E0F7EE001A31EEEC
:100BA000211A62EE010A5BE001EE101AB8EE411A5A
:100BB0009FED3D2AC2EE011A9FED391A80EE012AFF
:100BC000334E20363668C6F3080601EE106AB8EEDA
:100BD000411A32EE011AB7EE002A31EE021A61EE26
:100BE000810A3DE04EE01DE001EE101AB8EE411A18
:100BF000DFED2E1A81EE812A9FED291AC0EE011A2F
:100C0000234E20363668C6F3080601EE106AB8EEA9
:100C1000411A31EE811AF7EE001A31EE211A62EE16
:100C2000010A1DE001EE101AB8EE411A9FED1E2ACE
:100C3000C2EE011A9FED1A1A80EE012A144E2036D8
:100C40003668C6F3080601EE106AB8EE411A32EEB5
:100C5000011AB7EE002A31EE021A61EE810A00BFD6
:100C600000BF0B4E20363668C6F34626721C01EED6
:100C7000102AB8EE411AC0EE811ABCEEE11A11EE4C
:100C8000100A00E0002001E0034800BF00BFF0BDF3
:100C9000104402580090D00300093D0040787D01C7
:100CA000000000460024744C0024744A20BCBE4B53
:100CB0002DE9F047044614B90120BDE8F0872078FB
:100CC00000F00100002870D0FA48006800F03808F1
:100CD000F8481830D0F80090B8F1100F06D0B8F1ED
:100CE000180F0FD109F0030002280BD1F14810387A
:100CF0000068C0F3404000286AD06068002867D1CF
:100D00000120DAE700BF6068B0F5803F08D1E9480C
:100D10001038006840F48030E649103908602EE051
:100D2000606868B9E3481038006820F48030E14911
:100D3000103908600846006820F4802008601EE032
:100D40006068B0F5A02F0DD1DA481038006840F483
:100D50008020D849103908600846006840F4803087
:100D600008600CE0D3481038006820F48030D14986
:100D7000103908600846006820F48020086000BF31
:100D8000606898B1FFF7ECFB054606E0FFF7E8FB6B
:100D9000401B642801D903208FE7C648103800683B
:100DA000C0F340400028F1D012E012E0FFF7D8FB7A
:100DB000054606E0FFF7D4FB401B642801D9032059
:100DC0007BE7BC4810380068C0F340400028F1D1F0
:100DD00000BF207800F00200022874D1B5480068F6
:100DE00000F03808B3481830D0F80090B8F1000F80
:100DF00005D0B8F1180F56D109F00300D0BBAD48AB
:100E000010380068C0F3800018B1E06808B901200C
:100E100053E7A8481038006820F01900E16808433B
:100E2000A44910390860FFF79BFB054606E0FFF771
:100E300097FB401B022801D903203EE79D4810384C
:100E40000068C0F380000028F1D000BFFFF782FBEC
:100E500041F2030188421AD8206940280BD19548F5
:100E60000C38006820F47C3040F4003091490C3993
:100E7000086017E017E08F480C38006820F47C30D9
:100E8000216940EA01308B490C3908600AE0894841
:100E90000C38006820F0FE40217C40EA0160854962
:100EA0000C39086066E0E06888B382481038006852
:100EB00020F01900E16808437E4910390860FFF707
:100EC0004FFB054607E056E0FFF74AFB401B0228B0
:100ED00001D90320F1E6774810380068C0F380009C
:100EE0000028F1D000BFFFF735FB41F20301884233
:100EF0001AD8206940280BD16E480C38006820F4BD
:100F00007C3040F400306B490C39086017E017E082
:100F100068480C38006820F47C30216940EA0130D0
:100F200064490C3908600AE062480C38006820F017
:100F3000FE40217C40EA01605E490C39086019E0FE
:100F40005C481038006820F001005A4910390860E8
:100F5000FFF706FB054606E0FFF702FB401B0228F1
:100F600001D90320A9E6534810380068C0F3800077
:100F70000028F1D100BF207800F0100010287CD1AB
:100F80004C48006800F038084A481830D0F8009003
:100F9000B8F1080F06D0B8F1180F3DD109F00300E1
:100FA000012839D1434810380068C0F3002020B12F
:100FB000E069802801D001207FE600BFFFF7CAFA70
:100FC00041F2030188421AD8206A20280AD1394800
:100FD0000C38006820F0F84040F0804035490C396A
:100FE000086018E033480C38006820F0F84094F8A6
:100FF000201040EA81602F490C3908600BE02D4831
:10100000001F006820F07C5094F8201040EA016036
:101010002849091F086066E0E06978B32548103860
:10102000006840F08000234910390860FFF798FA03
:10103000054606E0FFF794FA401B022801D9032079
:101040003BE61C4810380068C0F300200028F1D0AF
:1010500000BFFFF77FFA41F2030188421CD8206AE3
:1010600020280CD113480C38006820F0F84040F0DC
:10107000804010490C3908601AE035E01CE00D484A
:101080000C38006820F0F84094F8201040EA8160A5
:1010900008490C3908600BE00648001F006820F082
:1010A0007C5094F8201040EA01600249091F086052
:1010B00019E0000010440258FA48006820F080004F
:1010C000F8490860FFF74CFA054606E0FFF748FAD2
:1010D000401B022801D90320EFE5F2480068C0F365
:1010E00000200028F2D100BF207800F00800082876
:1010F00036D16069D0B1EB487430006840F001002F
:10110000E84974310860FFF72BFA054606E0FFF75F
:1011100027FA401B022801D90320CEE5E1487430AC
:101120000068C0F340000028F1D019E0DD487430B9
:10113000006820F00100DB4974310860FFF710FA05
:10114000054606E0FFF70CFA401B022801D90320F0
:10115000B3E5D44874300068C0F340000028F1D1F2
:10116000207800F02000202830D1A069B8B1CD4807
:10117000006840F48050CB490860FFF7F1F905465C
:1011800006E0FFF7EDF9401B022801D9032094E5A2
:10119000C4480068C0F340300028F2D016E0C148CF
:1011A000006820F48050BF490860FFF7D9F9054670
:1011B00006E0FFF7D5F9401B022801D903207CE5A2
:1011C000B8480068C0F340300028F2D1207800F021
:1011D000040004287DD1B448006840F48070B2490E
:1011E0000860FFF7BDF9054606E0FFF7B9F9401BB7
:1011F000642801D9032060E5AB48006800F48070E2
:101200000028F2D000BFA068012808D1A54870309E
:10121000006840F00100A349703108602DE0A0682B
:1012200068B9A0487030006820F001009D49703115
:1012300008600846006820F0040008601DE0A0680F
:1012400005280DD197487030006840F0040095499A
:10125000703108600846006840F0010008600CE04A
:1012600090487030006820F001008E4970310860AD
:101270000846006820F00400086000BFA068A0B124
:10128000FFF76EF9054608E0FFF76AF9401B41F2E7
:101290008831884201D903200FE582487030006808
:1012A000C0F340000028EFD013E0FFF759F90546DE
:1012B00008E0FFF755F9401B41F28831884201D917
:1012C0000320FAE4774870300068C0F3400000283B
:1012D000EFD1606A00287DD072481030006800F0BD
:1012E0003800182877D0606A022875D16D480068E8
:1012F00020F080706B490860FFF732F9054606E080
:10130000FFF72EF9401B022801D90320D5E46548D8
:101310000068C0F340600028F2D100BFD4E90A1091
:1013200041EA00105F492831096840F2F3329143E5
:1013300008435C4928310860208E401EC0F3080035
:10134000616B491E4FF47E4202EA41210843218F1E
:10135000491ED20102EA014108433C21095D491EB0
:10136000120202EA016108434E493031086000BFB1
:10137000081F006820F00100091F08604948343048
:1013800000684FF6F8718843A16C40EAC1004549F6
:101390003431086043482C30006820F00C00216C88
:1013A000084340492C3108600846006820F00200DC
:1013B000616C08433B492C3108600846006840F4E2
:1013C000803008600846006840F400300860084635
:1013D000006802E06AE038E01FE040F48020086026
:1013E0000846006840F0010008602E48006840F0A0
:1013F00080702C490860FFF7B3F8054606E0FFF758
:10140000AFF8401B022801D9032056E425480068A4
:10141000C0F340600028F2D048E02248006820F085
:10142000807020490860FFF79BF8054606E0FFF74B
:1014300097F8401B022801D903203EE419480068B0
:10144000C0F340600028F2D130E016482830076829
:10145000144830300668606A012821D007F0030183
:10146000A06A81421CD1C7F30511E06A884217D1F6
:10147000C6F30801206B401E814211D1606B401EF3
:10148000C6F3462188420BD1A06B401EC6F306412D
:10149000884205D1E06B401EC6F30661884205D044
:1014A00001200AE40044025800480258002004E4E5
:1014B00070B504462546681EB0F1807F01D3012037
:1014C0000FE0681E4FF0E02148610F214FF0FF3020
:1014D00000F02CF900204FF0E0218861072008611E
:1014E000002070BD00BFFEE700B587B0142102A840
:1014F000FEF7F5FE00BF1648006840F004001449EE
:1015000008600846006800F00400019000BF00BFBA
:1015100000BF0846006840F0800008600846006888
:1015200000F08000019000BF00BF01220E21094899
:10153000FFF70AF80E200290012003900490032088
:10154000059002A90348FEF701FF07B000BD0000A7
:10155000E04402580008025800BFFEE700BFFEE763
:101560007047704710B5FFF701F810BD00B59DB08A
:101570004C210AA8FEF7B3FE202102A8FEF7AFFE19
:101580000220FFF7BFF800BF00200190214800684B
:1015900020F001001F4908600846006800F00100C3
:1015A00001901D48006820F4404040F480401A49F2
:1015B00008600846006800F44040019000BF00BF8A
:1015C00000BF1548006800F40050B0F5005FF8D186
:1015D00002200A9001200D9040200E9000201390D0
:1015E0000AA8FFF765FB08B1FEF799FE3F200290BD
:1015F00000200390049005900690079008900990B1
:10160000012102A8FFF7AEF808B1FEF788FE1DB071
:1016100000BD00002C0400581848025834480068E7
:1016200040F47000324908603248006800F00F0052
:10163000072806D22F48006820F00F00C01D2D4952
:1016400008602D48006840F001002B490860002028
:10165000294910310860284800682849084026496F
:1016600008602448006800F00F00072806D92148C8
:10167000006820F00F00C01D1E49086000201E49B0
:1016800018310860091D0860091D08601C481A49C6
:10169000283108601B48091D08601B48091D0860A7
:1016A0000020091D08601848091D08600020091D58
:1016B00008601548091D08600020091D08600E48D3
:1016C000006820F480200C49086000200A4960313D
:1016D00008600E4800686FF30F00B0F1005F02D29F
:1016E00001200B49086043F2D2000A4908607047A4
:1016F00088ED00E000200052004402587FEDF6EA39
:10170000000202020000FF01800201010010005CE3
:10171000088100510040005200BFFEE70248006807
:10172000C0F30220704700000CED00E010B5002867
:1017300004DB0A07130E054A135406E00A07140EC9
:10174000034A00F00F031B1FD45410BD00E400E057
:1017500018ED00E002E008C8121F08C1002AFAD103
:1017600070477047002001E001C1121F002AFBD121
:101770007047FEF707FFFFF7F9FEFFF7B5FE00F031
:1017800006F803E04FF47A70FEF7CCFDFAE786B076
:10179000002003900490059000900190029003A80F
:1017A00006B07047000000000102030401020304B8
:1017B00006070809D41700080000002014000000E4
:1017C00054170008E8170008140000200404000063
:1017D0006417000800000000100000000100000075
:0817E0000090D0030090D0033B
:040000050800029954
:00000001FF
